:100000000C9434000C9458000C943E000C943E0068
:100010000C943E000C943E000C943E000C943E0068
:100020000C943E000C943E000C943E000C94400056
:100030000C943E000C943E000C943E000C943E0048
:100040000C943E000C943E000C943E000C943E0038
:100050000C943E000C943E000C943E000C943E0028
:100060000C943E000C943E0011241FBECFEFD8E04C
:10007000DEBFCDBF0E9470000C9491000C94000074
:100080001F920F920FB60F9211248F93EF93FF934D
:1000900085B18E7D85B9E1E8F0E080818A7F80833B
:1000A000FF91EF918F910F900FBE0F901F901895B9
:1000B0001F920F920FB60F9211248F93EF93FF931D
:1000C00085B1816285B9E1E8F0E080818560808357
:1000D000FF91EF918F910F900FBE0F901F90189589
:1000E0000E9475000E948900FFCFF89483E08093FE
:1000F000690081E08DBB88E09DE390938900809347
:10010000880088E08093810082E080936F0078947B
:10011000089515B881E284B91AB884E08BB989B919
:060120000895F894FFCFE2
:00000001FF
